{
  "_format": "hh-sol-artifact-1",
  "contractName": "IntentRegistry",
  "sourceName": "contracts/IntentRegistry.sol",
  "abi": [
    {
      "inputs": [
        {
          "internalType": "address payable",
          "name": "_treasury",
          "type": "address"
        }
      ],
      "stateMutability": "nonpayable",
      "type": "constructor"
    },
    {
      "inputs": [],
      "name": "ECDSAInvalidSignature",
      "type": "error"
    },
    {
      "inputs": [
        {
          "internalType": "uint256",
          "name": "length",
          "type": "uint256"
        }
      ],
      "name": "ECDSAInvalidSignatureLength",
      "type": "error"
    },
    {
      "inputs": [
        {
          "internalType": "bytes32",
          "name": "s",
          "type": "bytes32"
        }
      ],
      "name": "ECDSAInvalidSignatureS",
      "type": "error"
    },
    {
      "inputs": [],
      "name": "InvalidShortString",
      "type": "error"
    },
    {
      "inputs": [
        {
          "internalType": "string",
          "name": "str",
          "type": "string"
        }
      ],
      "name": "StringTooLong",
      "type": "error"
    },
    {
      "anonymous": false,
      "inputs": [],
      "name": "EIP712DomainChanged",
      "type": "event"
    },
    {
      "anonymous": false,
      "inputs": [
        {
          "indexed": true,
          "internalType": "uint256",
          "name": "id",
          "type": "uint256"
        },
        {
          "indexed": false,
          "internalType": "address",
          "name": "solver",
          "type": "address"
        }
      ],
      "name": "IntentSettled",
      "type": "event"
    },
    {
      "anonymous": false,
      "inputs": [
        {
          "indexed": true,
          "internalType": "uint256",
          "name": "id",
          "type": "uint256"
        },
        {
          "indexed": true,
          "internalType": "address",
          "name": "user",
          "type": "address"
        },
        {
          "indexed": false,
          "internalType": "uint256",
          "name": "amount",
          "type": "uint256"
        }
      ],
      "name": "IntentSubmitted",
      "type": "event"
    },
    {
      "inputs": [],
      "name": "eip712Domain",
      "outputs": [
        {
          "internalType": "bytes1",
          "name": "fields",
          "type": "bytes1"
        },
        {
          "internalType": "string",
          "name": "name",
          "type": "string"
        },
        {
          "internalType": "string",
          "name": "version",
          "type": "string"
        },
        {
          "internalType": "uint256",
          "name": "chainId",
          "type": "uint256"
        },
        {
          "internalType": "address",
          "name": "verifyingContract",
          "type": "address"
        },
        {
          "internalType": "bytes32",
          "name": "salt",
          "type": "bytes32"
        },
        {
          "internalType": "uint256[]",
          "name": "extensions",
          "type": "uint256[]"
        }
      ],
      "stateMutability": "view",
      "type": "function"
    },
    {
      "inputs": [
        {
          "internalType": "uint256",
          "name": "",
          "type": "uint256"
        }
      ],
      "name": "intents",
      "outputs": [
        {
          "internalType": "address",
          "name": "user",
          "type": "address"
        },
        {
          "internalType": "address",
          "name": "fromToken",
          "type": "address"
        },
        {
          "internalType": "address",
          "name": "toToken",
          "type": "address"
        },
        {
          "internalType": "uint256",
          "name": "amount",
          "type": "uint256"
        },
        {
          "internalType": "uint256",
          "name": "chainTo",
          "type": "uint256"
        },
        {
          "internalType": "uint256",
          "name": "expiry",
          "type": "uint256"
        },
        {
          "internalType": "bool",
          "name": "settled",
          "type": "bool"
        }
      ],
      "stateMutability": "view",
      "type": "function"
    },
    {
      "inputs": [
        {
          "internalType": "uint256",
          "name": "id",
          "type": "uint256"
        }
      ],
      "name": "markSettled",
      "outputs": [],
      "stateMutability": "nonpayable",
      "type": "function"
    },
    {
      "inputs": [],
      "name": "nextId",
      "outputs": [
        {
          "internalType": "uint256",
          "name": "",
          "type": "uint256"
        }
      ],
      "stateMutability": "view",
      "type": "function"
    },
    {
      "inputs": [
        {
          "internalType": "address",
          "name": "",
          "type": "address"
        }
      ],
      "name": "nonces",
      "outputs": [
        {
          "internalType": "uint256",
          "name": "",
          "type": "uint256"
        }
      ],
      "stateMutability": "view",
      "type": "function"
    },
    {
      "inputs": [
        {
          "internalType": "address",
          "name": "user",
          "type": "address"
        },
        {
          "internalType": "address",
          "name": "fromToken",
          "type": "address"
        },
        {
          "internalType": "address",
          "name": "toToken",
          "type": "address"
        },
        {
          "internalType": "uint256",
          "name": "amount",
          "type": "uint256"
        },
        {
          "internalType": "uint256",
          "name": "chainTo",
          "type": "uint256"
        },
        {
          "internalType": "uint256",
          "name": "expiry",
          "type": "uint256"
        },
        {
          "internalType": "uint256",
          "name": "nonce",
          "type": "uint256"
        },
        {
          "internalType": "bytes",
          "name": "signature",
          "type": "bytes"
        }
      ],
      "name": "relaySubmitIntent",
      "outputs": [
        {
          "internalType": "uint256",
          "name": "",
          "type": "uint256"
        }
      ],
      "stateMutability": "payable",
      "type": "function"
    },
    {
      "inputs": [
        {
          "internalType": "address",
          "name": "fromToken",
          "type": "address"
        },
        {
          "internalType": "address",
          "name": "toToken",
          "type": "address"
        },
        {
          "internalType": "uint256",
          "name": "amount",
          "type": "uint256"
        },
        {
          "internalType": "uint256",
          "name": "chainTo",
          "type": "uint256"
        },
        {
          "internalType": "uint256",
          "name": "expiry",
          "type": "uint256"
        }
      ],
      "name": "submitIntent",
      "outputs": [
        {
          "internalType": "uint256",
          "name": "",
          "type": "uint256"
        }
      ],
      "stateMutability": "payable",
      "type": "function"
    },
    {
      "inputs": [],
      "name": "treasury",
      "outputs": [
        {
          "internalType": "contract Treasury",
          "name": "",
          "type": "address"
        }
      ],
      "stateMutability": "view",
      "type": "function"
    }
  ],
  "bytecode": "0x6101806040523480156200001257600080fd5b5060405162001523380380620015238339810160408190526200003591620001c0565b604080518082018252600e81526d496e74656e74526567697374727960901b602080830191909152825180840190935260018352603160f81b9083015290620000808260006200013b565b61012052620000918160016200013b565b61014052815160208084019190912060e052815190820120610100524660a0526200011f60e05161010051604080517f8b73c3c69bb8fe3d512ecc4cf759cc79239f7b179b0ffacaa9a75d522b39400f60208201529081019290925260608201524660808201523060a082015260009060c00160405160208183030381529060405280519060200120905090565b60805250503060c0526001600160a01b031661016052620003d8565b60006020835110156200015b57620001538362000174565b90506200016e565b8162000168848262000297565b5060ff90505b92915050565b600080829050601f81511115620001ab578260405163305a27a960e01b8152600401620001a2919062000363565b60405180910390fd5b8051620001b882620003b3565b179392505050565b600060208284031215620001d357600080fd5b81516001600160a01b0381168114620001eb57600080fd5b9392505050565b634e487b7160e01b600052604160045260246000fd5b600181811c908216806200021d57607f821691505b6020821081036200023e57634e487b7160e01b600052602260045260246000fd5b50919050565b601f8211156200029257600081815260208120601f850160051c810160208610156200026d5750805b601f850160051c820191505b818110156200028e5782815560010162000279565b5050505b505050565b81516001600160401b03811115620002b357620002b3620001f2565b620002cb81620002c4845462000208565b8462000244565b602080601f831160018114620003035760008415620002ea5750858301515b600019600386901b1c1916600185901b1785556200028e565b600085815260208120601f198616915b82811015620003345788860151825594840194600190910190840162000313565b5085821015620003535787850151600019600388901b60f8161c191681555b5050505050600190811b01905550565b600060208083528351808285015260005b81811015620003925785810183015185820160400152820162000374565b506000604082860101526040601f19601f8301168501019250505092915050565b805160208083015191908110156200023e5760001960209190910360031b1b16919050565b60805160a05160c05160e051610100516101205161014051610160516110d76200044c6000396000818161017f0152818161053d0152610810015260006109a30152600061097101526000610aa301526000610a7b015260006109d601526000610a0001526000610a2a01526110d76000f3fe60806040526004361061007b5760003560e01c80637e5634b91161004e5780637e5634b9146101b95780637ecebe00146101db57806384b0196e14610208578063ce1f7c231461023057600080fd5b80631c42e91a1461008057806346a1a095146100a657806361b8ce8c1461015757806361d027b31461016d575b600080fd5b61009361008e366004610dfb565b610243565b6040519081526020015b60405180910390f35b3480156100b257600080fd5b506101116100c1366004610ec6565b600360208190526000918252604090912080546001820154600283015493830154600484015460058501546006909501546001600160a01b03948516969385169593909416939192909160ff1687565b604080516001600160a01b039889168152968816602088015294909616938501939093526060840191909152608083015260a082015290151560c082015260e00161009d565b34801561016357600080fd5b5061009360025481565b34801561017957600080fd5b506101a17f000000000000000000000000000000000000000000000000000000000000000081565b6040516001600160a01b03909116815260200161009d565b3480156101c557600080fd5b506101d96101d4366004610ec6565b61064d565b005b3480156101e757600080fd5b506100936101f6366004610edf565b60046020526000908152604090205481565b34801561021457600080fd5b5061021d6106ea565b60405161009d9796959493929190610f47565b61009361023e366004610fdd565b610730565b604080517f5aa1d281be1a30ac79d3e170f9ab089be6bf13d5bc94957be2eb91e97017a5306020808301919091526001600160a01b038c8116838501528b811660608401528a16608083015260a0820189905260c0820188905260e08201879052610100808301879052835180840390910181526101209092019092528051910120600090816102d28261090d565b90508b6001600160a01b031661031e8287878080601f01602080910402602001604051908101604052809392919081815260200183838082843760009201919091525061094092505050565b6001600160a01b03161461036d5760405162461bcd60e51b8152602060048201526011602482015270496e76616c6964207369676e617475726560781b60448201526064015b60405180910390fd5b6001600160a01b038c1660009081526004602052604090205486146103c45760405162461bcd60e51b815260206004820152600d60248201526c496e76616c6964206e6f6e636560981b6044820152606401610364565b6001600160a01b038c1660009081526004602052604081208054916103e88361102a565b909155505060028054600091826103fe8361102a565b9190505590506040518060e001604052808e6001600160a01b031681526020018d6001600160a01b031681526020018c6001600160a01b031681526020018b81526020018a8152602001898152602001600015158152506003600083815260200190815260200160002060008201518160000160006101000a8154816001600160a01b0302191690836001600160a01b0316021790555060208201518160010160006101000a8154816001600160a01b0302191690836001600160a01b0316021790555060408201518160020160006101000a8154816001600160a01b0302191690836001600160a01b03160217905550606082015181600301556080820151816004015560a0820151816005015560c08201518160060160006101000a81548160ff02191690831515021790555090505060003411156105f95760007f00000000000000000000000000000000000000000000000000000000000000006001600160a01b03163460405160006040518083038185875af1925050503d80600081146105a6576040519150601f19603f3d011682016040523d82523d6000602084013e6105ab565b606091505b50509050806105f75760405162461bcd60e51b81526020600482015260186024820152771d1c99585cdd5c9e481d1c985b9cd9995c8819985a5b195960421b6044820152606401610364565b505b8c6001600160a01b0316817f0786b426cb6643dcb9b7ad1db3671803e9b8d567cf9f60baaff744f07f2cffba8c60405161063591815260200190565b60405180910390a39c9b505050505050505050505050565b6000818152600360205260409020600681015460ff16156106a25760405162461bcd60e51b815260206004820152600f60248201526e185b1c9958591e481cd95d1d1b1959608a1b6044820152606401610364565b60068101805460ff1916600117905560405133815282907f3690fd266adddd835fdffb97bb189d814aac2aaeea7786ba33f87392cf9b30149060200160405180910390a25050565b6000606080600080600060606106fe61096a565b61070661099c565b60408051600080825260208201909252600f60f81b9b939a50919850469750309650945092509050565b60028054600091829190826107448361102a565b909155506040805160e0810182523381526001600160a01b038a811660208084019182528b8316848601908152606085018c8152608086018c815260a087018c8152600060c089018181528b8252600396879052999020975188549088166001600160a01b0319918216178955955160018901805491891691881691909117905592516002880180549190971695169490941790945592519084015551600483015551600582015590516006909101805491151560ff19909216919091179055905034156108cc5760007f00000000000000000000000000000000000000000000000000000000000000006001600160a01b03163460405160006040518083038185875af1925050503d8060008114610879576040519150601f19603f3d011682016040523d82523d6000602084013e61087e565b606091505b50509050806108ca5760405162461bcd60e51b81526020600482015260186024820152771d1c99585cdd5c9e481d1c985b9cd9995c8819985a5b195960421b6044820152606401610364565b505b604051858152339082907f0786b426cb6643dcb9b7ad1db3671803e9b8d567cf9f60baaff744f07f2cffba9060200160405180910390a39695505050505050565b600061093a61091a6109c9565b8360405161190160f01b8152600281019290925260228201526042902090565b92915050565b6000806000806109508686610af4565b9250925092506109608282610b41565b5090949350505050565b60606109977f00000000000000000000000000000000000000000000000000000000000000006000610bfe565b905090565b60606109977f00000000000000000000000000000000000000000000000000000000000000006001610bfe565b6000306001600160a01b037f000000000000000000000000000000000000000000000000000000000000000016148015610a2257507f000000000000000000000000000000000000000000000000000000000000000046145b15610a4c57507f000000000000000000000000000000000000000000000000000000000000000090565b610997604080517f8b73c3c69bb8fe3d512ecc4cf759cc79239f7b179b0ffacaa9a75d522b39400f60208201527f0000000000000000000000000000000000000000000000000000000000000000918101919091527f000000000000000000000000000000000000000000000000000000000000000060608201524660808201523060a082015260009060c00160405160208183030381529060405280519060200120905090565b60008060008351604103610b2e5760208401516040850151606086015160001a610b2088828585610ca9565b955095509550505050610b3a565b50508151600091506002905b9250925092565b6000826003811115610b5557610b55611051565b03610b5e575050565b6001826003811115610b7257610b72611051565b03610b905760405163f645eedf60e01b815260040160405180910390fd5b6002826003811115610ba457610ba4611051565b03610bc55760405163fce698f760e01b815260048101829052602401610364565b6003826003811115610bd957610bd9611051565b03610bfa576040516335e2f38360e21b815260048101829052602401610364565b5050565b606060ff8314610c1857610c1183610d78565b905061093a565b818054610c2490611067565b80601f0160208091040260200160405190810160405280929190818152602001828054610c5090611067565b8015610c9d5780601f10610c7257610100808354040283529160200191610c9d565b820191906000526020600020905b815481529060010190602001808311610c8057829003601f168201915b5050505050905061093a565b600080807f7fffffffffffffffffffffffffffffff5d576e7357a4501ddfe92f46681b20a0841115610ce45750600091506003905082610d6e565b604080516000808252602082018084528a905260ff891692820192909252606081018790526080810186905260019060a0016020604051602081039080840390855afa158015610d38573d6000803e3d6000fd5b5050604051601f1901519150506001600160a01b038116610d6457506000925060019150829050610d6e565b9250600091508190505b9450945094915050565b60606000610d8583610db7565b604080516020808252818301909252919250600091906020820181803683375050509182525060208101929092525090565b600060ff8216601f81111561093a57604051632cd44ac360e21b815260040160405180910390fd5b80356001600160a01b0381168114610df657600080fd5b919050565b60008060008060008060008060006101008a8c031215610e1a57600080fd5b610e238a610ddf565b9850610e3160208b01610ddf565b9750610e3f60408b01610ddf565b965060608a0135955060808a0135945060a08a0135935060c08a0135925060e08a013567ffffffffffffffff80821115610e7857600080fd5b818c0191508c601f830112610e8c57600080fd5b813581811115610e9b57600080fd5b8d6020828501011115610ead57600080fd5b6020830194508093505050509295985092959850929598565b600060208284031215610ed857600080fd5b5035919050565b600060208284031215610ef157600080fd5b610efa82610ddf565b9392505050565b6000815180845260005b81811015610f2757602081850181015186830182015201610f0b565b506000602082860101526020601f19601f83011685010191505092915050565b60ff60f81b881681526000602060e081840152610f6760e084018a610f01565b8381036040850152610f79818a610f01565b606085018990526001600160a01b038816608086015260a0850187905284810360c0860152855180825283870192509083019060005b81811015610fcb57835183529284019291840191600101610faf565b50909c9b505050505050505050505050565b600080600080600060a08688031215610ff557600080fd5b610ffe86610ddf565b945061100c60208701610ddf565b94979496505050506040830135926060810135926080909101359150565b60006001820161104a57634e487b7160e01b600052601160045260246000fd5b5060010190565b634e487b7160e01b600052602160045260246000fd5b600181811c9082168061107b57607f821691505b60208210810361109b57634e487b7160e01b600052602260045260246000fd5b5091905056fea26469706673582212200e817b6fc981a2f3dcd8c249664601e5b64c0a55f3367ceec13f13a3ddb873d564736f6c63430008140033",
  "linkReferences": {},
  "deployedLinkReferences": {}
}