{
  "_format": "hh-sol-artifact-1",
  "contractName": "SolverAuction",
  "sourceName": "contracts/SolverAuction.sol",
  "abi": [
    {
      "anonymous": false,
      "inputs": [
        {
          "indexed": true,
          "internalType": "uint256",
          "name": "intentId",
          "type": "uint256"
        },
        {
          "indexed": false,
          "internalType": "address",
          "name": "solver",
          "type": "address"
        },
        {
          "indexed": false,
          "internalType": "uint256",
          "name": "price",
          "type": "uint256"
        }
      ],
      "name": "BidPlaced",
      "type": "event"
    },
    {
      "anonymous": false,
      "inputs": [
        {
          "indexed": true,
          "internalType": "uint256",
          "name": "intentId",
          "type": "uint256"
        },
        {
          "indexed": false,
          "internalType": "address",
          "name": "solver",
          "type": "address"
        },
        {
          "indexed": false,
          "internalType": "uint256",
          "name": "price",
          "type": "uint256"
        }
      ],
      "name": "BidWon",
      "type": "event"
    },
    {
      "inputs": [
        {
          "internalType": "uint256",
          "name": "intentId",
          "type": "uint256"
        }
      ],
      "name": "acceptBid",
      "outputs": [],
      "stateMutability": "nonpayable",
      "type": "function"
    },
    {
      "inputs": [
        {
          "internalType": "uint256",
          "name": "",
          "type": "uint256"
        }
      ],
      "name": "bestBid",
      "outputs": [
        {
          "internalType": "address",
          "name": "solver",
          "type": "address"
        },
        {
          "internalType": "uint256",
          "name": "price",
          "type": "uint256"
        }
      ],
      "stateMutability": "view",
      "type": "function"
    },
    {
      "inputs": [
        {
          "internalType": "uint256",
          "name": "intentId",
          "type": "uint256"
        }
      ],
      "name": "placeBid",
      "outputs": [],
      "stateMutability": "payable",
      "type": "function"
    }
  ],
  "bytecode": "0x608060405234801561001057600080fd5b50610288806100206000396000f3fe6080604052600436106100345760003560e01c80632b1fd58a146100395780639979ef451461005b578063c77cb6be1461006e575b600080fd5b34801561004557600080fd5b50610059610054366004610239565b6100d1565b005b610059610069366004610239565b61018b565b34801561007a57600080fd5b506100ae610089366004610239565b600060208190529081526040902080546001909101546001600160a01b039091169082565b604080516001600160a01b03909316835260208301919091520160405180910390f35b60008181526020818152604091829020825180840190935280546001600160a01b03168084526001909101549183019190915261013d5760405162461bcd60e51b81526020600482015260066024820152651b9bc8189a5960d21b604482015260640160405180910390fd5b8051602080830151604080516001600160a01b0390941684529183015283917fde114e5800a1647e49d618103a637c307dbcff701b38c40219a6e9874cacada5910160405180910390a25050565b6000818152602081905260409020600181015434919015806101b05750806001015482105b15610234576040805180820182523380825260208083018681526000888152808352859020935184546001600160a01b0319166001600160a01b0390911617845551600190930192909255825190815290810184905284917f0e54eff26401bf69b81b26f60bd85ef47f5d85275c1d268d84f68d6897431c47910160405180910390a25b505050565b60006020828403121561024b57600080fd5b503591905056fea264697066735822122054c860819d4524a22161839edc37536b709e90dbe9d1cf9672ae3d7e4b4bb37064736f6c63430008140033",
  "linkReferences": {},
  "deployedLinkReferences": {}
}