{
  "_format": "hh-sol-artifact-1",
  "contractName": "StakingManager",
  "sourceName": "contracts/StakingManager.sol",
  "abi": [
    {
      "inputs": [
        {
          "internalType": "address payable",
          "name": "_treasury",
          "type": "address"
        }
      ],
      "stateMutability": "nonpayable",
      "type": "constructor"
    },
    {
      "anonymous": false,
      "inputs": [
        {
          "indexed": true,
          "internalType": "address",
          "name": "who",
          "type": "address"
        },
        {
          "indexed": false,
          "internalType": "uint256",
          "name": "amount",
          "type": "uint256"
        }
      ],
      "name": "Slashed",
      "type": "event"
    },
    {
      "anonymous": false,
      "inputs": [
        {
          "indexed": false,
          "internalType": "uint256",
          "name": "amount",
          "type": "uint256"
        }
      ],
      "name": "TreasuryPaid",
      "type": "event"
    },
    {
      "inputs": [],
      "name": "admin",
      "outputs": [
        {
          "internalType": "address",
          "name": "",
          "type": "address"
        }
      ],
      "stateMutability": "view",
      "type": "function"
    },
    {
      "inputs": [
        {
          "internalType": "address",
          "name": "who",
          "type": "address"
        },
        {
          "internalType": "uint256",
          "name": "amount",
          "type": "uint256"
        }
      ],
      "name": "slash",
      "outputs": [],
      "stateMutability": "payable",
      "type": "function"
    },
    {
      "inputs": [
        {
          "internalType": "address",
          "name": "",
          "type": "address"
        }
      ],
      "name": "slashed",
      "outputs": [
        {
          "internalType": "uint256",
          "name": "",
          "type": "uint256"
        }
      ],
      "stateMutability": "view",
      "type": "function"
    },
    {
      "inputs": [],
      "name": "treasury",
      "outputs": [
        {
          "internalType": "address payable",
          "name": "",
          "type": "address"
        }
      ],
      "stateMutability": "view",
      "type": "function"
    },
    {
      "stateMutability": "payable",
      "type": "receive"
    }
  ],
  "bytecode": "0x608060405234801561001057600080fd5b506040516103b83803806103b883398101604081905261002f91610062565b60008054336001600160a01b031991821617909155600180549091166001600160a01b0392909216919091179055610092565b60006020828403121561007457600080fd5b81516001600160a01b038116811461008b57600080fd5b9392505050565b610317806100a16000396000f3fe6080604052600436106100435760003560e01c806302fb4d851461004f57806361d027b3146100645780638bcfa665146100a1578063f851a440146100dc57600080fd5b3661004a57005b600080fd5b61006261005d36600461026e565b6100fc565b005b34801561007057600080fd5b50600154610084906001600160a01b031681565b6040516001600160a01b0390911681526020015b60405180910390f35b3480156100ad57600080fd5b506100ce6100bc366004610298565b60026020526000908152604090205481565b604051908152602001610098565b3480156100e857600080fd5b50600054610084906001600160a01b031681565b6001600160a01b038216600090815260026020526040812080548392906101249084906102ba565b9091555050341561020b576001546040516000916001600160a01b03169034908381818185875af1925050503d806000811461017c576040519150601f19603f3d011682016040523d82523d6000602084013e610181565b606091505b50509050806101d65760405162461bcd60e51b815260206004820152601860248201527f7472656173757279207472616e73666572206661696c65640000000000000000604482015260640160405180910390fd5b6040513481527f7341a46c2c66918fdbcb0f6bd92c1b23ecd51d13510cc6772596fe02b0edc46e9060200160405180910390a1505b816001600160a01b03167f4ed05e9673c26d2ed44f7ef6a7f2942df0ee3b5e1e17db4b99f9dcd261a339cd8260405161024691815260200190565b60405180910390a25050565b80356001600160a01b038116811461026957600080fd5b919050565b6000806040838503121561028157600080fd5b61028a83610252565b946020939093013593505050565b6000602082840312156102aa57600080fd5b6102b382610252565b9392505050565b808201808211156102db57634e487b7160e01b600052601160045260246000fd5b9291505056fea2646970667358221220b5af945323da143a437ba26bc50b4b8e9bb2738e31fa1986bc9306acb1108fd064736f6c63430008140033",
  "linkReferences": {},
  "deployedLinkReferences": {}
}