{
  "_format": "hh-sol-artifact-1",
  "contractName": "Treasury",
  "sourceName": "contracts/Treasury.sol",
  "abi": [
    {
      "inputs": [
        {
          "internalType": "address",
          "name": "_owner",
          "type": "address"
        }
      ],
      "stateMutability": "nonpayable",
      "type": "constructor"
    },
    {
      "anonymous": false,
      "inputs": [
        {
          "indexed": false,
          "internalType": "uint256",
          "name": "newTotalFees",
          "type": "uint256"
        }
      ],
      "name": "FeeRecorded",
      "type": "event"
    },
    {
      "anonymous": false,
      "inputs": [
        {
          "indexed": true,
          "internalType": "address",
          "name": "from",
          "type": "address"
        },
        {
          "indexed": false,
          "internalType": "uint256",
          "name": "amount",
          "type": "uint256"
        }
      ],
      "name": "TreasuryDeposited",
      "type": "event"
    },
    {
      "inputs": [],
      "name": "owner",
      "outputs": [
        {
          "internalType": "address",
          "name": "",
          "type": "address"
        }
      ],
      "stateMutability": "view",
      "type": "function"
    },
    {
      "inputs": [
        {
          "internalType": "uint256",
          "name": "amount",
          "type": "uint256"
        }
      ],
      "name": "recordFee",
      "outputs": [],
      "stateMutability": "nonpayable",
      "type": "function"
    },
    {
      "inputs": [],
      "name": "totalFees",
      "outputs": [
        {
          "internalType": "uint256",
          "name": "",
          "type": "uint256"
        }
      ],
      "stateMutability": "view",
      "type": "function"
    },
    {
      "stateMutability": "payable",
      "type": "receive"
    }
  ],
  "bytecode": "0x60a060405234801561001057600080fd5b506040516102b13803806102b183398101604081905261002f91610040565b6001600160a01b0316608052610070565b60006020828403121561005257600080fd5b81516001600160a01b038116811461006957600080fd5b9392505050565b60805161022661008b600039600061010501526102266000f3fe6080604052600436106100385760003560e01c806313114a9d146100ca5780638da5cb5b146100f3578063e12d88871461013f57600080fd5b366100c5573460008082825461004e91906101b0565b909155505060405134815233907f8283e6b33f7f1cfc32820a5fd82cd9e5224d98c14133977f1e7902ce920e51ce9060200160405180910390a27f1c988c7462b477dfacfdb6dcab050022c5c81c7fc407bb0345eccbe1f7cb6c026000546040516100bb91815260200190565b60405180910390a1005b600080fd5b3480156100d657600080fd5b506100e060005481565b6040519081526020015b60405180910390f35b3480156100ff57600080fd5b506101277f000000000000000000000000000000000000000000000000000000000000000081565b6040516001600160a01b0390911681526020016100ea565b34801561014b57600080fd5b5061015f61015a3660046101d7565b610161565b005b8060008082825461017291906101b0565b90915550506000546040519081527f1c988c7462b477dfacfdb6dcab050022c5c81c7fc407bb0345eccbe1f7cb6c029060200160405180910390a150565b808201808211156101d157634e487b7160e01b600052601160045260246000fd5b92915050565b6000602082840312156101e957600080fd5b503591905056fea26469706673582212207966512301545aee3e2c4a901f05e924b21695a40e01e246dd69c106f5810e0f64736f6c63430008140033",
  "linkReferences": {},
  "deployedLinkReferences": {}
}