{
  "_format": "hh-sol-artifact-1",
  "contractName": "ValidatorRegistry",
  "sourceName": "contracts/ValidatorRegistry.sol",
  "abi": [
    {
      "inputs": [
        {
          "internalType": "address",
          "name": "_stakingManager",
          "type": "address"
        }
      ],
      "stateMutability": "nonpayable",
      "type": "constructor"
    },
    {
      "anonymous": false,
      "inputs": [
        {
          "indexed": true,
          "internalType": "address",
          "name": "who",
          "type": "address"
        }
      ],
      "name": "ValidatorActivated",
      "type": "event"
    },
    {
      "anonymous": false,
      "inputs": [
        {
          "indexed": true,
          "internalType": "address",
          "name": "who",
          "type": "address"
        }
      ],
      "name": "ValidatorDeactivated",
      "type": "event"
    },
    {
      "anonymous": false,
      "inputs": [
        {
          "indexed": true,
          "internalType": "address",
          "name": "who",
          "type": "address"
        },
        {
          "indexed": false,
          "internalType": "uint256",
          "name": "stake",
          "type": "uint256"
        }
      ],
      "name": "ValidatorRegistered",
      "type": "event"
    },
    {
      "anonymous": false,
      "inputs": [
        {
          "indexed": true,
          "internalType": "address",
          "name": "who",
          "type": "address"
        },
        {
          "indexed": false,
          "internalType": "uint256",
          "name": "amount",
          "type": "uint256"
        }
      ],
      "name": "ValidatorSlashed",
      "type": "event"
    },
    {
      "inputs": [],
      "name": "admin",
      "outputs": [
        {
          "internalType": "address",
          "name": "",
          "type": "address"
        }
      ],
      "stateMutability": "view",
      "type": "function"
    },
    {
      "inputs": [
        {
          "internalType": "address",
          "name": "who",
          "type": "address"
        }
      ],
      "name": "getValidator",
      "outputs": [
        {
          "components": [
            {
              "internalType": "address",
              "name": "owner",
              "type": "address"
            },
            {
              "internalType": "uint256",
              "name": "stake",
              "type": "uint256"
            },
            {
              "internalType": "bool",
              "name": "active",
              "type": "bool"
            },
            {
              "internalType": "uint256",
              "name": "withdrawAvailableAt",
              "type": "uint256"
            }
          ],
          "internalType": "struct ValidatorRegistry.Validator",
          "name": "",
          "type": "tuple"
        }
      ],
      "stateMutability": "view",
      "type": "function"
    },
    {
      "inputs": [],
      "name": "listValidators",
      "outputs": [
        {
          "internalType": "address[]",
          "name": "",
          "type": "address[]"
        }
      ],
      "stateMutability": "view",
      "type": "function"
    },
    {
      "inputs": [],
      "name": "register",
      "outputs": [],
      "stateMutability": "payable",
      "type": "function"
    },
    {
      "inputs": [],
      "name": "requestDeactivate",
      "outputs": [],
      "stateMutability": "nonpayable",
      "type": "function"
    },
    {
      "inputs": [
        {
          "internalType": "address",
          "name": "who",
          "type": "address"
        },
        {
          "internalType": "uint256",
          "name": "amount",
          "type": "uint256"
        }
      ],
      "name": "slashValidator",
      "outputs": [],
      "stateMutability": "nonpayable",
      "type": "function"
    },
    {
      "inputs": [],
      "name": "stakingManager",
      "outputs": [
        {
          "internalType": "contract IStakingManager",
          "name": "",
          "type": "address"
        }
      ],
      "stateMutability": "view",
      "type": "function"
    },
    {
      "inputs": [],
      "name": "topUp",
      "outputs": [],
      "stateMutability": "payable",
      "type": "function"
    },
    {
      "inputs": [
        {
          "internalType": "uint256",
          "name": "",
          "type": "uint256"
        }
      ],
      "name": "validatorList",
      "outputs": [
        {
          "internalType": "address",
          "name": "",
          "type": "address"
        }
      ],
      "stateMutability": "view",
      "type": "function"
    },
    {
      "inputs": [
        {
          "internalType": "address",
          "name": "",
          "type": "address"
        }
      ],
      "name": "validators",
      "outputs": [
        {
          "internalType": "address",
          "name": "owner",
          "type": "address"
        },
        {
          "internalType": "uint256",
          "name": "stake",
          "type": "uint256"
        },
        {
          "internalType": "bool",
          "name": "active",
          "type": "bool"
        },
        {
          "internalType": "uint256",
          "name": "withdrawAvailableAt",
          "type": "uint256"
        }
      ],
      "stateMutability": "view",
      "type": "function"
    },
    {
      "inputs": [
        {
          "internalType": "uint256",
          "name": "amount",
          "type": "uint256"
        }
      ],
      "name": "withdraw",
      "outputs": [],
      "stateMutability": "nonpayable",
      "type": "function"
    },
    {
      "inputs": [],
      "name": "withdraw",
      "outputs": [],
      "stateMutability": "nonpayable",
      "type": "function"
    }
  ],
  "bytecode": "0x608060405234801561001057600080fd5b50604051610cb7380380610cb783398101604081905261002f91610062565b60008054336001600160a01b031991821617909155600180549091166001600160a01b0392909216919091179055610092565b60006020828403121561007457600080fd5b81516001600160a01b038116811461008b57600080fd5b9392505050565b610c16806100a16000396000f3fe6080604052600436106100a75760003560e01c806368d4e5441161006457806368d4e544146102175780639032357914610239578063b048e0561461024e578063dc29f1de1461026e578063f851a44014610276578063fa52c7d81461029657600080fd5b80631904bb2e146100ac5780631aa3a0081461018057806322828cc21461018a5780632e1a7d4d146101c25780633ccfd60b146101e25780633e4208ef146101f7575b600080fd5b3480156100b857600080fd5b506101396100c7366004610ac9565b60408051608080820183526000808352602080840182905283850182905260609384018290526001600160a01b039586168252600280825291859020855193840186528054909616835260018601549083015284015460ff161515928101929092526003909201549181019190915290565b604051610177919081516001600160a01b03168152602080830151908201526040808301511515908201526060918201519181019190915260800190565b60405180910390f35b610188610317565b005b34801561019657600080fd5b506001546101aa906001600160a01b031681565b6040516001600160a01b039091168152602001610177565b3480156101ce57600080fd5b506101886101dd366004610aeb565b6104c5565b3480156101ee57600080fd5b50610188610657565b34801561020357600080fd5b50610188610212366004610b04565b610754565b34801561022357600080fd5b5061022c6108d6565b6040516101779190610b2e565b34801561024557600080fd5b50610188610938565b34801561025a57600080fd5b506101aa610269366004610aeb565b610a04565b610188610a2e565b34801561028257600080fd5b506000546101aa906001600160a01b031681565b3480156102a257600080fd5b506102e76102b1366004610ac9565b600260208190526000918252604090912080546001820154928201546003909201546001600160a01b03909116929160ff169084565b604080516001600160a01b0390951685526020850193909352901515918301919091526060820152608001610177565b336000908152600260205260409020546001600160a01b0316156103775760405162461bcd60e51b8152602060048201526012602482015271185b1c9958591e481c9959da5cdd195c995960721b60448201526064015b60405180910390fd5b600034116103b85760405162461bcd60e51b815260206004820152600e60248201526d1cdd185ad9481c995c5d5a5c995960921b604482015260640161036e565b6040805160808101825233808252346020808401828152600185870181815260006060880181815287825260028087528a832099518a546001600160a01b039091166001600160a01b0319918216178b5595518a8601559251928901805493151560ff1990941693909317909255905160039788015586549182018755959095527fc2575a0e9e593c00f959f8c92f12db2869c3395a3b0502d05e2516446f71f85b909401805490941683179093559251928352917fb4a7f5c563a0e35593d156394ed681bdc9c39467d7d722749d23862c2e4b712c910160405180910390a260405133907fb2b8c5f713f27009f7a78ec2167999c472e5ee8bc591102da17bc4a6551236c890600090a2565b336000818152600260205260409020805490916001600160a01b03909116146105005760405162461bcd60e51b815260040161036e90610b7b565b600281015460ff161561054b5760405162461bcd60e51b81526020600482015260136024820152721b5d5cdd0818994819195858dd1a5d985d1959606a1b604482015260640161036e565b80600301544210156105885760405162461bcd60e51b815260206004820152600660248201526506c6f636b75760d41b604482015260640161036e565b600082116105c35760405162461bcd60e51b81526020600482015260086024820152670616d6f756e743e360c41b604482015260640161036e565b806001015482111561060c5760405162461bcd60e51b8152602060048201526012602482015271696e73756666696369656e74207374616b6560701b604482015260640161036e565b818160010160008282546106209190610bb4565b9091555050604051339083156108fc029084906000818181858888f19350505050158015610652573d6000803e3d6000fd5b505050565b336000818152600260205260409020805490916001600160a01b03909116146106925760405162461bcd60e51b815260040161036e90610b7b565b600281015460ff16156106dd5760405162461bcd60e51b81526020600482015260136024820152721b5d5cdd0818994819195858dd1a5d985d1959606a1b604482015260640161036e565b806003015442101561071a5760405162461bcd60e51b815260206004820152600660248201526506c6f636b75760d41b604482015260640161036e565b6001810180546000918290556040519091339183156108fc0291849190818181858888f19350505050158015610652573d6000803e3d6000fd5b6000546001600160a01b0316331461079b5760405162461bcd60e51b815260206004820152600a60248201526937b7363c9030b236b4b760b11b604482015260640161036e565b6001600160a01b03808316600090815260026020526040902080549091166107f95760405162461bcd60e51b815260206004820152601160248201527037379039bab1b4103b30b634b230ba37b960791b604482015260640161036e565b806001015482111561080d57806001015491505b818160010160008282546108219190610bb4565b90915550506001546040516302fb4d8560e01b81526001600160a01b03858116600483015260248201859052909116906302fb4d859084906044016000604051808303818588803b15801561087557600080fd5b505af1158015610889573d6000803e3d6000fd5b5050505050826001600160a01b03167f17bddadfd7ec8898c3b9eadd0cf5ae77ba8d5df3a50e96ab86ec2dd711aa8fbb836040516108c991815260200190565b60405180910390a2505050565b6060600380548060200260200160405190810160405280929190818152602001828054801561092e57602002820191906000526020600020905b81546001600160a01b03168152600190910190602001808311610910575b5050505050905090565b336000818152600260205260409020805490916001600160a01b03909116146109735760405162461bcd60e51b815260040161036e90610b7b565b600281015460ff166109ba5760405162461bcd60e51b815260206004820152601060248201526f616c726561647920696e61637469766560801b604482015260640161036e565b60028101805460ff191690556109d142600a610bcd565b600382015560405133907f23d934bfe7f1275bc6fd70432159c9cc1c0075d069f89da6a40f43bfe7a94ed390600090a250565b60038181548110610a1457600080fd5b6000918252602090912001546001600160a01b0316905081565b336000908152600260205260409020546001600160a01b0316610a845760405162461bcd60e51b815260206004820152600e60248201526d1b9bdd081c9959da5cdd195c995960921b604482015260640161036e565b3360009081526002602052604081206001018054349290610aa6908490610bcd565b9091555050565b80356001600160a01b0381168114610ac457600080fd5b919050565b600060208284031215610adb57600080fd5b610ae482610aad565b9392505050565b600060208284031215610afd57600080fd5b5035919050565b60008060408385031215610b1757600080fd5b610b2083610aad565b946020939093013593505050565b6020808252825182820181905260009190848201906040850190845b81811015610b6f5783516001600160a01b031683529284019291840191600101610b4a565b50909695505050505050565b6020808252600990820152683737ba1037bbb732b960b91b604082015260600190565b634e487b7160e01b600052601160045260246000fd5b81810381811115610bc757610bc7610b9e565b92915050565b80820180821115610bc757610bc7610b9e56fea26469706673582212206ef1d94b0387f8eae426f24b075c06c09061322f7be6181372501a419ca849c964736f6c63430008140033",
  "linkReferences": {},
  "deployedLinkReferences": {}
}